:1000000012C018951895189557C5189518951895F4
:100010001895189518951895189518951895189578
:100020001895189518958FE58DBFC8E3E0E24E2E20
:1000300084E08EBFD4E0F4E05F2EA89584B7082E4C
:10004000877F84BF88E1992781BD91BDEEEFF3E002
:10005000A0E6B0E088278D933197E9F7662480E029
:1000600087BB8FEF81BBA098A198A298A398A49872
:1000700080E08FBD85E08EBD82E085BD789489B734
:10008000806489BFE8E0F0E0A0E1B0E0EED50130A7
:1000900009F038C081E080936D0000916D00083058
:1000A00010F009F018C0EDE6F0E0A190BB24EFEFEE
:1000B000FFEFEA0DFB1DADE6B0E0AD90BB24A0E67E
:1000C000B0E0AA0DBB1DD1D5ADE6B0E08C918F5F3D
:1000D0008C9308F4E2CFE9E0F0E0A9E6B0E0C5D502
:1000E000EAE0F0E0AAE6B0E0C0D5E8E0F0E0A1E7A1
:1000F000B0E0BBD5E8E0F0E0A0E1BB2780E08C9366
:100100007BE7A2D500917100013009F001C0B9C0B0
:1001100080E088BB80E082BB80E08093610080E06B
:100120008093620080E08093630080E080936400AD
:1001300080E08093650080E08093660080E080939B
:10014000670080E08093680082E085BD81E0809355
:100150006D0080E18093720081E08093730082E003
:100160008093740083E08093750084E08093760030
:1001700085E08093770086E08093780087E0809325
:10018000790088E080937A0089E080937B008AE0A0
:1001900080937C008BE080937D008CE080937E00D8
:1001A0008DE080937F008EE0809380008FE08093CD
:1001B000810080E18093820081E080938300009140
:1001C0008300003110F009F059C0A198A0E7B0E019
:1001D0009C9196FF04C0999B0EC09F7B9C9399991C
:1001E0000AC082E09F939927F7D49F91999903C001
:1001F00090649C93BBD0A298A0E7B0E09C9195FF3F
:1002000004C09A9B0EC09F7D9C939A990AC082E07D
:100210009F939927E1D49F919A9903C090629C93F0
:10022000A5D0A098A0E7B0E09C9194FF04C0989B53
:100230000EC09F7E9C9398990AC082E09F93992755
:10024000CBD49F91989903C090619C938FD0A39831
:10025000A0E7B0E09C9193FF04C09B9B0EC0977FEA
:100260009C939B990AC082E09F939927B5D49F9154
:100270009B9903C098609C9379D0A1CF8EB5887F5D
:100280008EBD82E085BDA198A0E7B0E09C9196FF6D
:1002900004C0999B0EC09F7B9C9399990AC082E0F1
:1002A0009F93992799D49F91999903C090649C93A7
:1002B00059D1A298A0E7B0E09C9195FF04C09A9B09
:1002C0000EC09F7D9C939A990AC082E09F939927C4
:1002D00083D49F919A9903C090629C93DFD1A09898
:1002E000A0E7B0E09C9194FF04C0989B0EC09F7E55
:1002F0009C9398990AC082E09F9399276DD49F910F
:10030000989903C090619C9365D2A398A0E7B0E050
:100310009C9193FF04C09B9B0EC0977F9C939B99DD
:100320000AC082E09F93992757D49F919B9903C05D
:1003300098609C93EBD2A498A0E7B0E09C9192FFC8
:1003400004C09C9B0EC09B7F9C939C990AC082E03A
:100350009F93992741D49F919C9903C094609C934B
:1003600071D391CF882785BDF894FFCF80914C0041
:1003700080937100009171004091720080D4A1E7D8
:10038000B0E08C93A1E7B0E08C918F5F8C9380916B
:10039000710080938400A4E8B0E0AD90BB24A2E794
:1003A000B0E0AA0DBB1D8C9180937100009172008A
:1003B00041E0041BA5E8B0E00C9380918400809399
:1003C0006D004091850000916D00041710F009F058
:1003D00020C000916D0041E0040FAEE6B0E00C9348
:1003E000AEE6B0E0AD90BB24A2E7B0E0AA0DBB1D25
:1003F0008C91ADE6B0E0AD90BB24A2E7B0E0AA0DD1
:10040000BB1D8C93ADE6B0E08C918F5F8C9308F4AC
:10041000D8CF0091710041E0041BA9E6B0E00C9335
:10042000A9E6B0E00C9144E02AD40C93A9E6B0E030
:100430000C9142E0049F0C92A9E6B0E08C918F5F92
:100440008C930091710041E0041BAAE6B0E00C938C
:10045000AAE6B0E00C9144E012D48C93AAE6B0E096
:100460000C9142E0049F0C920091690041E0040F5E
:10047000ABE6B0E00C9300916A0041E0040FACE6FB
:10048000B0E00C93E4EBFBE0A3E8B0E08C9199279B
:10049000A1E7B0E0C0D3A1E7B0E08C9183FBAAE66E
:1004A000B0E08C91A9E6B0E0AD90BB24A0E6B0E04E
:1004B000AA0DBB1DBDD3B2D30C9016F0092201C00A
:1004C000082A0C92A1E7B0E08C9182FBACE6B0E088
:1004D0008C91A9E6B0E0AD90BB24A0E6B0E0AA0DF7
:1004E000BB1DA6D39BD30C9016F0092201C0082A8D
:1004F0000C92A1E7B0E08C9181FBAAE6B0E08C9170
:10050000ABE6B0E0AD90BB24A0E6B0E0AA0DBB1D09
:100510008FD384D30C9016F0092201C0082A0C92C4
:10052000A1E7B0E08C9180FBACE6B0E08C91ABE64B
:10053000B0E0AD90BB24A0E6B0E0AA0DBB1D78D31F
:100540006DD30C9016F0092201C0082A0C92A2E784
:10055000B0E08C9181508C93A3E8B0E08C918F5FD8
:100560008C93089500916900073009F493C00091BD
:10057000690041E0040FABE6B0E00C9300916A0023
:1005800041E0040FACE6B0E00C93809169008093E9
:100590006D0040916B0000916D00041710F009F0A0
:1005A00074C000916D0042E0040FAFE6B0E00C9320
:1005B00080916A0080936E0040916C0000916E0003
:1005C000041710F009F05AC0AEE6B0E08C91ADE629
:1005D000B0E0AD90BB24A0E6B0E0AA0DBB1D28D3CF
:1005E0001DD30C900822689409F4E894A0E7B0E0C9
:1005F0008C9187F98C93AEE6B0E08C91AFE6B0E0D9
:10060000AD90BB24A0E6B0E0AA0DBB1D11D306D36C
:100610000C900822689409F4E894AEE6B0E08C915E
:10062000ADE6B0E0AD90BB24A0E6B0E0AA0DBB1DE6
:10063000FFD2F4D20C9016F0092201C0082A0C92C5
:10064000A0E7B0E08C9187FBAEE6B0E08C91AFE61E
:10065000B0E0AD90BB24A0E6B0E0AA0DBB1DE8D28F
:10066000DDD20C9016F0092201C0082A0C92AEE6E9
:10067000B0E08C918F5F8C9308F49ECFADE6B0E034
:100680008C918F5F8C9308F484CFA9E6B0E08C91B5
:100690008E5F8C9384E190E09FD208950091690071
:1006A000013009F493C00091690041E0040FABE60A
:1006B000B0E00C9300916A0041E0040FACE6B0E0BA
:1006C0000C938091690080936D0040916B000091C4
:1006D0006D00041710F009F074C000916D0042E045
:1006E000041BAFE6B0E00C9380916A0080936E002B
:1006F00040916C0000916E00041710F009F05AC090
:10070000AEE6B0E08C91ADE6B0E0AD90BB24A0E6E3
:10071000B0E0AA0DBB1D8CD281D20C900822689447
:1007200009F4E894A0E7B0E08C9187F98C93AEE6E9
:10073000B0E08C91AFE6B0E0AD90BB24A0E6B0E0B5
:10074000AA0DBB1D75D26AD20C900822689409F4D8
:10075000E894AEE6B0E08C91ADE6B0E0AD90BB249D
:10076000A0E6B0E0AA0DBB1D63D258D20C9016F0E3
:10077000092201C0082A0C92A0E7B0E08C9187FB07
:10078000AEE6B0E08C91AFE6B0E0AD90BB24A0E661
:10079000B0E0AA0DBB1D4CD241D20C9016F009223C
:1007A00001C0082A0C92AEE6B0E08C918F5F8C936A
:1007B00008F49ECFADE6B0E08C918F5F8C9308F487
:1007C00084CFA9E6B0E08C9182508C9384E190E0D4
:1007D00003D2089500916A00063009F493C0009195
:1007E000690041E0040FABE6B0E00C9300916A00B1
:1007F00041E0040FACE6B0E00C9380916A00809376
:100800006E0040916C0000916E00041710F009F02A
:1008100074C000916E0042E0040FAFE6B0E00C93AC
:100820008091690080936D0040916B0000916D0094
:10083000041710F009F05AC0AEE6B0E08C91ADE6B6
:10084000B0E0AD90BB24A0E6B0E0AA0DBB1DF0D196
:10085000E5D10C900822689409F4E894A0E7B0E090
:100860008C9187F98C93AFE6B0E08C91ADE6B0E067
:10087000AD90BB24A0E6B0E0AA0DBB1DD9D1CED16E
:100880000C900822689409F4E894AEE6B0E08C91EC
:10089000ADE6B0E0AD90BB24A0E6B0E0AA0DBB1D74
:1008A000C7D1BCD10C9016F0092201C0082A0C92C5
:1008B000A0E7B0E08C9187FBAFE6B0E08C91ADE6AD
:1008C000B0E0AD90BB24A0E6B0E0AA0DBB1DB0D156
:1008D000A5D10C9016F0092201C0082A0C92ADE6B1
:1008E000B0E08C918F5F8C9308F49ECFAEE6B0E0C1
:1008F0008C918F5F8C9308F484CFAAE6B0E08C9142
:100900008E5F8C9384E190E067D1089500916A0036
:10091000003009F493C00091690041E0040FABE698
:10092000B0E00C9300916A0041E0040FACE6B0E047
:100930000C9380916A0080936E0040916C0000914E
:100940006E00041710F009F074C000916E0042E0D0
:10095000041BAFE6B0E00C938091690080936D00BA
:1009600040916B0000916D00041710F009F05AC01F
:10097000AEE6B0E08C91ADE6B0E0AD90BB24A0E671
:10098000B0E0AA0DBB1D54D149D10C900822689447
:1009900009F4E894A0E7B0E08C9187F98C93AFE676
:1009A000B0E08C91ADE6B0E0AD90BB24A0E6B0E045
:1009B000AA0DBB1D3DD132D10C900822689409F4D8
:1009C000E894AEE6B0E08C91ADE6B0E0AD90BB242B
:1009D000A0E6B0E0AA0DBB1D2BD120D10C9016F0E3
:1009E000092201C0082A0C92A0E7B0E08C9187FB95
:1009F000AFE6B0E08C91ADE6B0E0AD90BB24A0E6F0
:100A0000B0E0AA0DBB1D14D109D10C9016F009223B
:100A100001C0082A0C92ADE6B0E08C918F5F8C93F8
:100A200008F49ECFAEE6B0E08C918F5F8C9308F413
:100A300084CFAAE6B0E08C9182508C9384E190E060
:100A4000CBD00895E9E0F0E0A9E6B0E07BE7FCD088
:100A5000EAE0F0E0AAE6B0E07BE7F6D081E0809340
:100A60006D0000916D00083010F009F019C0EDE63E
:100A7000F0E0A190BB24EFEFFFEFEA0DFB1DADE628
:100A8000B0E0AD90BB24A0E6B0E0AA0DBB1D7BE7B3
:100A9000DBD0ADE6B0E08C918F5F8C9308F4E1CFB2
:100AA000E8E0F0E0A0E1BB2781E08C937BE7CCD0CD
:100AB00084E690E091D008950F921F922F923F927A
:100AC0004F925F927F92AF92BF920F931F932F939B
:100AD0003F934F935F936F937F938F939F93AF93C6
:100AE000BF93CF93DF93EF93FF938FB78F938FEFE6
:100AF00088BBA0E6B0E08C918F5F8C930091600082
:100B0000083010F009F001C003C081E0809360005C
:100B1000A0E6B0E0AD90BB24A0E6B0E0AA0DBB1DFE
:100B20008C9182BB00916000013009F002C0C7982F
:100B300022C0023009F002C0C6981DC0033009F07F
:100B400002C0C59818C0043009F002C0C49813C090
:100B5000053009F002C0C3980EC0063009F002C08B
:100B6000C29809C0073009F002C0C19804C008301B
:100B700009F001C0C0988F918FBFFF91EF91DF9175
:100B8000CF91BF91AF919F918F917F916F915F9125
:100B90004F913F912F911F910F91BF90AF907F90F8
:100BA0005F904F903F902F901F900F9018958FEF70
:100BB00088BB0895000102030405060708090A0B13
:100BC0000C0D0E0F00003197F1F70895689462F84C
:100BD0000895E89462F80895EF93FF93EE27E82BC9
:100BE000E92B31F0E0EDF7E03197F1F70197D1F71C
:100BF000FF91EF910895C89531960020089591E0F6
:100C000005C092E003C094E001C098E0F4DF0D92CB
:100C10009A95E1F70895E80FF91FF1CF91E0882345
:100C200021F08894991F8A95E9F7892F9095089566
:100C3000883018F011968850FBCF0895E199FECFC7
:100C4000EEBBFFBB3196089591E001C092E07B3787
:100C500051F47FB7F894F2DF8D918DBBE29AE19A5F
:100C60009A95C9F77FBF7727089591E001C092E078
:100C7000E5DFE09A8DB38D939A95D1F70895FF93B0
:100C8000881BF9E0001FFA9511F4FF910895881F61
:0E0C9000841B18F4840F8894F5CF0894F3CFDA
:00000001FF
