:020000020000FC
:0200000009C035
:1000120042C004E00EBF0FE50DBF0FEF07BB0FEFAD
:1000220001BB01E009BF02E003BF789492E010E057
:1000320001E0E0ECF0E0008321E0E20F20E0F21FBB
:10004200039513951830B9F7913009F0989B03D0B6
:100052009B9B11D0FBCF0FEF0150F0F798990895B9
:100062009B99FCCF9F3F09F093951FE10FEF015041
:100072001040E8F7C5CF0FEF0150F0F79B990895B4
:100082009899FCCF913009F09A951FE10FEF01503A
:100092001040E8F7B6CF0F931F932F933F93E0ECF6
:1000A200F0E011E06FEF6127008102BB68BB292FEE
:1000B2002150F0F70FEF08BB002702BB01E0E00F71
:1000C20000E0F01F110F103069F73F912F911F913F
:0400D2000F911895DD
:00000001FF
