:020000020000FC
:0200000009C035
:1000120094C004E00EBF0FE50DBF0FEF07BB0FEF5B
:1000220001BB01E009BF02E003BF789492E0E0EC7B
:10003200F0E010E000E0108321E0E20F20E0F21F88
:1000420003950031C1F702E005BD989B07D0999B4B
:1000520005D09A9B03D09B9B01D0F7CF1FE00FEFF7
:100062008DD002B702951FE00123E6E8F1E010E02F
:10007200E00FF11F1491912FE0ECF0E007E010E0A7
:10008200E00FF11F90831FE00FEF78D00895102F3B
:100092002FE0122302952FE00223E0ECF0E0E10FC3
:1000A20020E0F21F208131E0E30F30E0F31F3081C6
:1000B200D0FF4060D695440FD0FF4060D695D0FF68
:1000C2005060D695550FD0FF5060D6950250602FE4
:1000D200440F550F6A956030D9F7242B352BE0EC8D
:1000E200F0E0E10F60E0F61F208361E0E60F60E0E0
:1000F200F61F3083D3950895989B01D0FDCF13E06E
:100102000FEF3CD012D098990CC011E00FEF36D00F
:100112009A99F9CF9F3F09F093951FE10FEF2ED0E7
:100122006FCF13E00FEF2AD00895E0ECF0E007E084
:1001320010E0E00FF11F908308950F931F932F9308
:100142003F936F93E0ECF0E011E06FEF61270081E5
:1001520002BB68BB292F2150F0F70FEF08BB002725
:1001620002BB01E0E00F00E0F01F110F103069F751
:100172006F913F912F911F910F911895015010404F
:10018200E0F7089506264666042444640222426289
:0401920000204060A9
:00000001FF
