:1000000012C0189518951895189518951895189563
:10001000189597C0189518951895189518951895CE
:100020001895189518958FE58DBFC8E3E0E24E2E20
:1000300084E08EBFD4E0F4E05F2EA89584B7082E4C
:10004000877F84BF88E1992781BD91BDEEEFF3E002
:10005000A0E6B0E088278D933197E9F766248FEF0B
:1000600087BB8FEF81BBA098A198A298A398A49872
:1000700083E083BF789489B7816089BF80E088BBC3
:1000800080E082BB8FE7809365008FEB80936600F2
:100090008FED809367008FEE8093680087EF8093E9
:1000A00069008BEF80936A008DEF80936B008EEF79
:1000B00080936C0080E08093610081E08093610018
:1000C00000916100083010F009F011C091E0A1E644
:1000D000B0E0AD90BB24A4E6B0E0AA0DBB1DA5D056
:1000E000A1E6B0E08C918F5F8C9308F4E9CF84E1B6
:1000F00090E08CD0E2CFF894FFCF82B391E08927D3
:1001000082BB82E390E082D0089582B390E2892797
:1001100082BB82E390E07AD0089588B398E0892783
:1001200088BB82E390E072D0089588B398E0892775
:1001300088BB82E390E06AD0089582E390E066D0C5
:1001400008950F921F922F923F924F925F927F924B
:10015000AF92BF920F931F932F933F934F935F9351
:100160006F937F938F939F93AF93BF93CF93DF93BF
:10017000EF93FF938FB78F939098C09AA0E6B0E06B
:100180008C918F5F8C9300916000073010F009F024
:1001900001C003C080E080936000A0E6B0E0AD90B5
:1001A000BB24A4E6B0E0AA0DBB1D8C9182BBA0E6E7
:1001B000B0E08C91A8E3B0E04CD041D08C91892381
:1001C0008C938F918FBFFF91EF91DF91CF91BF9172
:1001D000AF919F918F917F916F915F914F913F91DF
:1001E0002F911F910F91BF90AF907F905F904F9094
:1001F0003F902F901F900F9018953197F1F7089529
:10020000689462F80895E89462F80895EF93FF9374
:10021000EE27E82BE92B31F0E0EDF7E03197F1F72D
:100220000197D1F7FF91EF910895903039F08C91BB
:10023000869508F480689A95D9F78C93089591E093
:10024000882321F08894991F8A95E9F7892F909542
:0E0250000895883018F011968850FBCF08955D
:00000001FF
