:1000000012C0189518951895189518951895189563
:100010001895189518951895189518951895189578
:100020001895189518958FE58DBFC8E3E0E24E2E20
:1000300084E08EBFD4E0F4E05F2EA89584B7082E4C
:10004000877F84BF88E1992781BD91BDEEEFF3E002
:10005000A0E6B0E088278D933197E9F766248A9867
:100060008FEF87BB84E083BF86E886B980EC87B9D1
:1000700080E090E0A0E6B0E08D939C9387E08093D1
:10008000620087E088BB379A07B1007F026007B93A
:1000900081D0A3E6B0E08D939C93A3E6B0E00D91F0
:1000A0001C9148E050E024D0A3E6B0E00D931C93EF
:1000B00080E088BBA3E6B0E08C91A8E3B0E087D0F5
:1000C0007CD09C91982B9C9380E991E054D0DCCF1C
:1000D00091E088B3BB27A8E166D088BB0895F89467
:1000E000FFCF804020100804020100FC10D00895CA
:1000F00003D01ED001F8F9CF0024E89457FF02C0C6
:1001000009D0689400F80BD010F80124089502D0AB
:1001100009D00895509540954F5F5F4F0895E8943A
:1001200017FF0895009510950F5F1F4F689408956D
:10013000352F242FE894452B11F468940895512FFE
:10014000402F0027112780E1440F551F001F111F6A
:10015000021B130B416018F4020F131F4E7F8A9588
:1001600099F708953197F1F70895689462F8089522
:10017000E89462F80895EF93FF93EE27E82BE92BBC
:1001800031F0E0EDF7E03197F1F70197D1F7FF910A
:10019000EF910895369A3699FECF369A3699FECF6A
:1001A00084B195B10895903039F08C91880F08F49E
:1001B00081609A95D9F78C93089591E0882321F076
:1001C0008894991F8A95E9F7892F9095089588302A
:0A01D00018F011968850FBCF089537
:00000001FF
